:020000040800F2
:1000000000000220B9020008C1020008C502000871
:10001000C9020008CD020008D1020008000000005B
:10002000000000000000000000000000D5020008F1
:10003000D902000800000000DD020008E10200080B
:10004000E5020008E5020008E5020008E5020008F4
:10005000E5020008E5020008E5020008E5020008E4
:10006000E5020008E5020008E5020008E5020008D4
:10007000E5020008E5020008E5020008E5020008C4
:10008000E5020008E5020008E5020008E5020008B4
:10009000E5020008E5020008E5020008E5020008A4
:1000A000E5020008E5020008E5020008E502000894
:1000B000E5020008E5020008E5020008E502000884
:1000C000E5020008E5020008E5020008E502000874
:1000D000E5020008E5020008E5020008E502000864
:1000E000E5020008E5020008E5020008E502000854
:1000F000E5020008E5020008E5020008E502000844
:10010000E5020008E5020008E5020008E502000833
:10011000E5020008E5020008E5020008E502000823
:10012000E5020008E5020008E5020008E502000813
:10013000E5020008E5020008E5020008E502000803
:10014000E5020008E5020008E5020008E5020008F3
:10015000E5020008E5020008E5020008E5020008E3
:10016000E5020008E5020008E5020008E5020008D3
:10017000E5020008E5020008E502000800000000B2
:10018000E5020008E502000800B583B001F0E6FAD8
:10019000384B394A1360394A136039490CE00A6810
:1001A0004B6801F10C04886803E01168196004339E
:1001B00004329842F9D82146324B9942EFD32E4B64
:1001C0001A68314B9A4204D12C4B1A682F4B9A4231
:1001D00000D0FEE7274B2E4A13602E4A13602E4BA9
:1001E0000AE0194651F8082B5B6802E00020106015
:1001F00004329A42FAD30B46284A9342F1D3244B55
:100200001B6813B9234B1B6803B1FEE701F0FEFA2C
:1002100001A8694601F096FA214C224B1C1BA41040
:10022000002504E01E4B53F8253098470135AC42B9
:10023000F8DC1D4C1D4B1C1BA410002504E01A4BC0
:1002400053F8253098470135AC42F8DC0198009905
:1002500001F0F0FB0546164C164B1C1BA41004E0E5
:10026000013C134B53F824309847002CF8DC284607
:1002700001F040FABABADECA00000020880000206F
:10028000E8020008000300087856341232547698C9
:100290008C0000202001002000030008100300084B
:1002A00010030008100300081003000810030008E2
:1002B000100300081003000808B5FFF765FF00BF32
:1002C000FEE700BFFEE700BFFEE700BFFEE700BF9E
:1002D000FEE700BFFEE700BFFEE700BFFEE700BF8E
:0802E000704700BFFEE700BFFC
:1002E800FC1E0008000000208C000020FC1E0008F6
:1002F80000000010000000108C00002024010020E5
:080308000000001000000010CD
:1003100010B5044601F0BAF9064BA3FB0030800982
:1003200000F09EF84FF0FF302146002200F04AF81E
:10033000002010BDD34D621008B50B4B1A6842F473
:1003400000721A601A6842F480621A601A6842F4F5
:1003500080721A60032000F017F80F20FFF7D8FF13
:1003600000F04CFD002008BD003C0240014B186825
:10037000704700BF90000020024A136823F0020378
:100380001360704710E000E010B50446C31E042B54
:1003900003D90A48A42101F0DDF904F00700084A56
:1003A000D36823F4E0631B041B0C43EA002040F0F5
:1003B000BF6040F40030D06010BD00BF1C1E0008BC
:1003C00000ED00E070B504460E4615460F2A03D92D
:1003D0001A48BC2101F0BEF90F2E03D91748BD21E0
:1003E00001F0B8F9164BDB68C3F30223C3F107022F
:1003F000042A28BF0422191D062901D9D81E00E0AD
:100400000020012303FA02F2013A324002FA00F11D
:1004100083405A1E2A400A43002C06DA04F00F04D7
:100420001201D2B2074B1A5570BD1201D2B204F1BB
:10043000604404F5614484F8002370BD1C1E00086C
:1004400000ED00E014ED00E0410900F01F00012381
:100450008340024A42F82130704700BF00E100E0CB
:100460000138B0F1807F0AD2064B5860F021064A6D
:1004700082F823100020986007221A60704701203C
:10048000704700BF10E000E000ED00E02DE9F84FFC
:1004900080460F460B881BB9AC48C32101F05AF9BE
:1004A0007B68012B22D9112B20D0022B1ED0122BBE
:1004B0001CD0A74A934219D002F58012934215D05E
:1004C00002F58012934211D0A2F5F81293420DD09A
:1004D00002F58012934209D002F58012934205D0B2
:1004E000032B03D09948C42101F034F9BB68022BD7
:1004F00003D99648C52101F02DF9002420E1A14639
:100500000125A5403B6803EA050AAA4540F017818A
:100510007B68022B01D0122B4AD13B69C3B3092B54
:1005200036D0ABB3A3B39BB393B3012B30D02FD052
:10053000022B2DD02CD02BD0032B29D0042B27D04D
:1005400026D025D0052B23D022D0092B20D0062B56
:100550001ED0092B1CD0072B1AD019D018D0082B6D
:1005600016D015D014D0092B12D011D00A2B0FD0D1
:100570000ED00B2B0CD00C2B0AD009D00D2B07D092
:100580000C2B05D00F2B03D07048D62101F0E2F8D8
:10059000E608083658F8261004F0070080000F23FC
:1005A000834021EA03023B698340134348F8263025
:1005B000D8F800304FEA440B032606FA0BF6F64350
:1005C00006EA03027B6803F0030303FA0BF3134309
:1005D000C8F800307B685A1E012A03D9112B01D0BC
:1005E000122B1CD1FB68032B03D95848E92101F0D9
:1005F000B1F8D8F8083006EA0302FB6803FA0BF3F7
:100600001343C8F80830D8F8043023EA05037D689E
:10061000C5F3001505FA09F51D43C8F80450D8F8CC
:100620000C303340BE6806FA0BF61E43C8F80C6067
:100630007B6813F0805F00F08280464A536C43F47D
:1006400080435364A308991CA2F5803252F821100C
:1006500004F0030080000F22824021EA02013E4A9A
:10066000904537D002F58062904531D002F5806226
:1006700090452BD002F58062904525D002F580622E
:1006800090451FD002F58062904519D002F5806236
:10069000904513D002F5806290450DD002F580623E
:1006A000904507D002F58062904501D1092212E001
:1006B0000A2210E008220EE007220CE006220AE0DF
:1006C000052208E0042206E0032204E0022202E000
:1006D000012200E0002282400A4302331F4941F810
:1006E00023201F4B1A686FEA0A0303EA02017868A5
:1006F00010F4803F01D04AEA0201194A11605268A1
:1007000003EA0201786810F4003F01D04AEA0201CE
:10071000134A5160926803EA0201786810F4801F5E
:1007200001D04AEA02010E4A9160D268134079680A
:1007300011F4001F01D04AEA0203094AD3600134D0
:100740000F2C7FF6DCAEBDE8F88F00BF501E00080E
:100750000000111000380240000002400038014043
:10076000003C0140F0B5002342E001229A4001EA3A
:10077000020595423BD106685F000324BC40E44378
:1007800026400660DF08083750F827E003F0070C22
:100790004FEA8C0C0F2606FA0CFC2EEA0C0E40F8E1
:1007A00027E0876827408760476827EA020242609F
:1007B000C2681440C46003F00302920096409A0895
:1007C0000D4F023257F8224024EA060647F822600D
:1007D0000A4C2668EA4306EA02052560656815406A
:1007E0006560A5681540A560E5682A40E2600133B0
:1007F0000F2BBAD9F0BD00BF00380140003C0140CA
:1008000038B505460C4621B9054840F2851100F07F
:10081000A1FF2B69234201D0012038BD002038BD43
:10082000501E000870B5054614460E4621B908480A
:100830004FF4D37100F08EFF012C04D9044840F22C
:10084000A71100F087FF0CB12E8370BD6E8370BDC1
:10085000501E0008F8B504460D461646FFF786FD03
:10086000074627E023685A6912F4806F11D01A688E
:1008700042F400721A6023686FF480625A610423A4
:1008800084F83630012084F83500002384F83430B1
:10089000F8BDB6F1FF3F0DD026B1FFF767FDC01BD5
:1008A000B04207D9012384F83530002384F834306E
:1008B0000320F8BDC5F30743012B08D123685B690A
:1008C00025EA03039BB2003318BF012307E0236826
:1008D0009B6925EA03039BB2003318BF0123002B59
:1008E000C0D10020F8BD00BF2DE9F04106460C46FE
:1008F00090461D46FFF73AFD0746B8F1000F12D0AB
:100900003DE0B5F1FF3F0ED025B1FFF72FFDC01B35
:10091000A84208D9012386F83530002386F8343000
:100920000320BDE8F081C4F30743012B08D13368ED
:100930005B6924EA03039BB2003318BF012307E07D
:1009400033689B6924EA03039BB2003318BF012379
:10095000002BD6D10020BDE8F081B5F1FF3F0ED0CD
:1009600025B1FFF703FDC01BA84208D9012386F873
:100970003530002386F834300320BDE8F081C4F31D
:100980000743012B08D133685B6924EA03039BB258
:10099000B3FA83F35B0907E033689B6924EA030336
:1009A0009BB2B3FA83F35B09002BD6D10020BDE8DC
:1009B000F08100BF70B504460E4615460268136804
:1009C00043F4807313604FF0011100222B46FFF7B0
:1009D0008BFF68BB2369B3F5804F04D1236806F011
:1009E000FE061E6116E0226806F44073DB1143F038
:1009F000F0031361204612492A46FFF72BFF30B15E
:100A000094F83630DBB2042B14D1012315E02368AF
:100A1000F6B21E6120460B492A46FFF71BFF03462C
:100A200058B194F83630DBB2042B05D1012304E031
:100A3000032302E0032300E00323184670BD00BF38
:100A40000800010002000100002800F0DE8038B537
:100A5000044603686E4A93420CD002F580629342CA
:100A600008D002F58062934204D06A4840F2211116
:100A700000F070FE6368013B674A934204D9654801
:100A80004FF4917100F066FEA3683BB1B3F5804F5F
:100A900004D0604840F2231100F05CFEE36823F4C8
:100AA0007F7323F0030323B15A484FF4927100F08F
:100AB00051FE2369B3F5804F07D0B3F5404F04D002
:100AC000544840F2251100F045FE6369012B04D91A
:100AD00050484FF4937100F03DFEA36933F0FE03DC
:100AE00004D04C4840F2271100F034FEE36933B1E2
:100AF000402B04D047484FF4947100F02BFE236A3A
:100B000033B1802B04D0434840F2291100F022FE7B
:100B100094F8353013F0FF0F02D1204601F01CF895
:100B2000022384F835302268136823F00103136030
:100B300000F0C8FD394BA3FB00239B0C22685360D7
:100B400021686568364A954201D8013308E04FF4C0
:100B5000967202FB03F3334AA2FB03239B09013382
:100B60000B62216863682E4A934208D85B00B0FB91
:100B7000F3F0C0F30B03032B2BD8042029E0A56866
:100B80004DB903EB4302B0FBF2F2C2F30B02B2FA2F
:100B900082F252090AE003EB830202EB8202B0FB0D
:100BA000F2F2C2F30B02B2FA82F2520982B935B9FB
:100BB00003EB4303B0FBF3F040F4004009E003EB28
:100BC000830303EB8303B0FBF3F040F4404000E009
:100BD0000120C8612268E169236A0B43136022681F
:100BE0002169E3680B43936022686169A3690B4341
:100BF000D3602268136843F001031360002084F877
:100C00003600012384F8353038BD0120704700BF1D
:100C100000540040801E00087F1A060083DE1B433C
:100C2000A0860100D34D621028B310B504460368B6
:100C3000124A93420CD002F58062934208D002F52A
:100C40008062934204D00E484FF4B67100F082FDEA
:100C5000022384F835302268136823F001031360FF
:100C6000204600F0EBFF002084F8360084F83500C1
:100C700084F8340010BD0120704700BF00540040CC
:100C8000801E000870B504461D4690F83530DBB272
:100C9000012B64D11646002A63D0002D63D003686F
:100CA0009B6913F0020F60D190F83430012B5ED0B5
:100CB000012380F83430122380F83530002380F887
:100CC0003630049AFFF776FE70B194F83630DBB216
:100CD000042B04D1002384F8343001234EE0002398
:100CE00084F83430032349E023685A699B6919E08A
:100CF000204623490022049BFFF7F6FD002838D147
:100D00002268731C31781161013DADB222685169CE
:100D100011F0040F05D025B1B31C71781161013DAC
:100D2000ADB21E46002DE3D1204615490022049B9A
:100D3000FFF7DAFDF8B92268136843F40073136013
:100D4000204610490122049BFFF7CEFD0346A0B9BF
:100D5000012284F83520002284F834200EE002239A
:100D60000CE001230AE0012308E0022306E002234D
:100D700004E0032302E0032300E00323184670BDD0
:100D8000800001000200100090F83530DBB2012B2A
:100D900024D129B332B310B40468A36913F0020F4D
:100DA00022D190F83430012B20D0012380F8343048
:100DB000222380F83530002380F8363041620285E6
:100DC0004285226842F48062226080F834300168F3
:100DD0004A6842F4E0624A60184608E00220704720
:100DE0000120704701207047022000E002205DF8DA
:100DF000044B704790F83600704700BF704700BF43
:100E000038B5044603680F2B03D9B348FD2100F021
:100E1000A1FC236813F0010F61D06368012B06D990
:100E2000052B04D0AC484FF4817100F093FCAB4B20
:100E30009B6803F00C03042B0AD0A84B9B6803F0BB
:100E40000C03082B0ED1A54B5B6813F4800F09D05F
:100E5000A24B1B6813F4003F41D06368012B40F0A4
:100E6000FE813CE000229E4B1A70FFF77FFA054698
:100E700007E0FFF77BFA401B41F28833984200F20B
:100E8000F081964B1B6813F4003FF2D12279944B0A
:100E90001A706368012B11D1FFF768FA054607E065
:100EA000FFF764FA401B41F28833984200F2DB817D
:100EB0008A4B1B6813F4003FF2D010E0FFF756FA9C
:100EC000054607E0FFF752FA401B41F2883398428B
:100ED00000F2CB81814B1B6813F4003FF2D12368F1
:100EE00013F0020F6DD0E368012B04D97A484FF458
:100EF000A17100F02FFC23691F2B04D9764840F222
:100F0000431100F027FC754B9B6813F00C0F0AD0BF
:100F1000724B9B6803F00C03082B1CD16F4B5B6872
:100F200013F4800F17D16D4B1B6813F0020F03D021
:100F3000E368012B40F09B816848026822F0F801C9
:100F40002269F82393FAA3F3B3FA83F3DBB29A404E
:100F50000A43026035E0E3680BB30122614B1A607B
:100F6000FFF704FA054605E0FFF700FA401B642886
:100F700000F27F81594B1B6813F0020FF4D05748E1
:100F8000036823F0F8012269F82393FAA3F3B3FA74
:100F900083F3DBB29A4041EA0203036011E00022CE
:100FA000504B1A60FFF7E2F9054605E0FFF7DEF95E
:100FB000401B642800F25F81484B1B6813F0020F4E
:100FC000F4D1236813F0080F2ED06369012B04D9E4
:100FD00041484FF4C17100F0BDFB636993B1012238
:100FE000414B1A60FFF7C2F9054605E0FFF7BEF96D
:100FF000401B642800F24181384B5B6F13F0020FF5
:10100000F4D011E00022384B1A60FFF7AFF9054623
:1010100005E0FFF7ABF9401B642800F230812F4B4D
:101020005B6F13F0020FF4D1236813F0040F6ED03E
:10103000A368012B06D9052B04D027484FF4D6719D
:1010400000F088FB254A136C43F080531364A2F52B
:10105000E432136843F480731360FFF787F90546A1
:1010600005E0FFF783F9401B642800F20A811F4B5B
:101070001B6813F4807FF4D000221D4B1A70FFF719
:1010800075F9054607E0FFF771F9401B41F2883317
:10109000984200F2F880114B1B6F13F0020FF2D14F
:1010A000227A134B1A70A368012B11D1FFF75EF956
:1010B000054607E0FFF75AF9401B41F28833984292
:1010C00000F2E380054B1B6F13F0020FF2D01EE01D
:1010D000FFF74CF9054615E0C01E00080038024035
:1010E0000238024000004742800E47420070004034
:1010F00070380240FFF73AF9401B41F288339842BA
:1011000000F2C580684B1B6F13F0020FF2D1A36988
:10111000022B04D965484FF4F87100F01BFBA3695A
:10112000002B00F0B680604A926802F00C02082A98
:1011300000F0B180022B7FD1E3693BB1B3F5800FA2
:1011400004D05A4840F2F91100F004FB236A3F2B07
:1011500004D956484FF4FD7100F0FCFA636AC03BB5
:10116000F02B04D9514840F2FB1100F0F3FAA36AC6
:10117000022B0AD0042B08D0062B06D0082B04D053
:101180004A484FF4FE7100F0E5FAE36A043B0B2B8A
:1011900004D9464840F2FD1100F0DCFA0022444B2D
:1011A0001A60FFF7E3F8054604E0FFF7DFF8401B9D
:1011B000642872D83C4B1B6813F0007FF5D1216A7C
:1011C000626A47F6C07393FAA3F3B3FA83F3DBB210
:1011D0009A401143A36A5B08013B4FF4403292FAF4
:1011E000A2F2B2FA82F2D2B293400B43E26943EA2E
:1011F0000201E36A4FF0706292FAA2F2B2FA82F24E
:10120000D2B203FA02F241EA020343F00053264A43
:1012100053600122264B1A60FFF7A8F8044604E049
:10122000FFF7A4F8001B642839D81F4B1B6813F084
:10123000007FF5D0002038BD00221D4B1A60FFF75B
:1012400095F8044604E0FFF791F8001B642828D8BD
:10125000154B1B6813F0007FF5D1002038BD01202D
:1012600038BD032038BD032038BD032038BD012020
:1012700038BD032038BD032038BD032038BD03200E
:1012800038BD032038BD032038BD032038BD0320FE
:1012900038BD002038BD012038BD032038BD0320F3
:1012A00038BD032038BD00BF00380240C01E000812
:1012B0006000474270B504460D460368013B0E2BA3
:1012C00004D988484FF4187100F044FA072D04D966
:1012D000844840F2612100F03DFA834B1B6803F023
:1012E0000F03AB4280F08B80EAB27F4B1A701B6811
:1012F00003F00F03AB4240F05181236813F0020F5B
:101300001DD0A368A3B1802B12D0902B10D0A02B9E
:101310000ED0B02B0CD0C02B0AD0D02B08D0E02B95
:1013200006D0F02B04D06F4840F2772100F012FA7B
:101330006E498B6823F0F002A36813438B60236827
:1013400013F0010F00F0E8806368022B04D96548B0
:1013500040F27E2100F0FEF96268012A05D1634B5C
:101360001B6813F4003F0ED11AE1022A05D15F4B2E
:101370001B6813F0007F06D114E15C4B1B6813F06F
:10138000020F00F0118159498B6823F003031343C6
:101390008B60FEF7EBFF05466368012B0FD107E07A
:1013A000FEF7E4FF401B41F28833984200F2FE80D2
:1013B0004E4B9B6803F00C03042BF1D1ACE0022BE5
:1013C00017D107E0FEF7D2FF401B41F28833984265
:1013D00000F2EE80454B9B6803F00C03082BF1D123
:1013E0009AE0FEF7C3FF401B41F28833984200F2B7
:1013F000E1803E4B9B6813F00C0FF2D18CE0236828
:1014000013F0020F1DD0A368A3B1802B12D0902B34
:1014100010D0A02B0ED0B02B0CD0C02B0AD0D02BCC
:1014200008D0E02B06D0F02B04D02E4840F2C62185
:1014300000F090F92D498B6823F0F002A368134364
:101440008B60236813F0010F5ED06368022B04D910
:10145000244840F2CD2100F07DF96268012A05D1CF
:10146000224B1B6813F4003F0ED1A5E0022A05D1E0
:101470001E4B1B6813F0007F06D19FE01B4B1B68BF
:1014800013F0020F00F09C8018498B6823F00303CF
:1014900013438B60FEF76AFF06466368012B0FD18A
:1014A00007E0FEF763FF801B41F28833984200F2A9
:1014B00089800E4B9B6803F00C03042BF1D123E0D1
:1014C000022B1CD106E0FEF751FF801B41F288334E
:1014D000984279D8054B9B6803F00C03082BF2D196
:1014E00012E000BFC01E0008003C0240003802406D
:1014F000FEF73CFF801B41F28833984266D8354B9B
:101500009B6813F00C0FF3D1EAB2334B1A701B68CF
:1015100003F00F03AB425BD1236813F0040F19D023
:10152000E36883B1B3F5805F0DD0B3F5A05F0AD057
:10153000B3F5C05F07D0B3F5E05F04D0274840F2B1
:101540001D3100F007F923498B6823F4E052E3686A
:1015500013438B60236813F0080F1AD0236983B1FB
:10156000B3F5805F0DD0B3F5A05F0AD0B3F5C05FCF
:1015700007D0B3F5E05F04D018484FF4497100F08C
:10158000E9F8144A936823F46043216943EAC103EC
:1015900093600F20FEF7BCFE002070BD012070BDDF
:1015A000012070BD012070BD012070BD032070BD01
:1015B000032070BD032070BD012070BD012070BDEF
:1015C000012070BD032070BD032070BD032070BDDD
:1015D000012070BD00380240003C0240C01E0008DF
:1015E000274B9B6803F00C03042B46D0082B01D03B
:1015F00024487047224B586800F03F00596801F4B6
:1016000080014FF4800292FAA2F2B2FA82F2D2B2D0
:1016100031FA02F310D01C4BB3FBF0F3184A5068B8
:1016200047F6C072104092FAA2F2B2FA82F2D2B237
:10163000D04000FB03F30FE0124BB3FBF0F3104A72
:10164000506847F6C072104092FAA2F2B2FA82F2E3
:10165000D2B2D04000FB03F3094A506800F4403096
:101660004FF4403292FAA2F2B2FA82F2D2B2D040F1
:1016700001304000B3FBF0F070470348704700BFF3
:10168000003802400024F40000127A0008B5FFF789
:10169000A7FF094B9B6803F0F002F02393FAA3F332
:1016A000B3FA83F3DBB222FA03F3044AD35CD840E3
:1016B000034B186008BD00BF00380240B01E000890
:1016C0000C00002008B5FFF7E1FF084B9B6803F40E
:1016D000E0524FF4E05393FAA3F3B3FA83F3DBB28F
:1016E00022FA03F3024AD35CD84008BD0038024016
:1016F000B01E0008FEE700BF08B50120FFF7FAFFA3
:1017000008B50D4B1B6813B90C4A0B4B1A600A4BFA
:101710001A68C31C23F00303134409498B4206D9FA
:1017200000F0BCFA0C2303604FF0FF3008BD024903
:101730000B60104608BD00BF94000020240100206B
:1017400000FC012001230360014B0B60704700BFC8
:101750000400002008B5FFF7CFFF00BF08B500F078
:1017600001F808BD0C4B1A6842F001021A60002112
:1017700099601A6822F0847222F480321A60074A53
:101780005A601A6822F480221A60D9604FF0006211
:10179000034B9A60704700BF0038024010300024AD
:1017A00000ED00E010B592B0174A136C43F080537F
:1017B0001364A2F5E432136843F440431360012339
:1017C00001930293022407944FF4800308930823A3
:1017D00009934FF4A8730A930B9407230C9301A861
:1017E000FFF70EFB0F230D930E9400230F934FF47E
:1017F000A05310934FF4805311930DA80521FFF7C8
:1018000059FD12B010BD00BF0038024008B5FFF707
:10181000A9FFFEF791FDFEF7AFFDFFF7C3FF08BD7F
:1018200008B50020014600F055F9012000F014F938
:10183000002000F011F9022000F00EF9032000F062
:101840000BF908BD00B583B0002000F07BF901283A
:10185000FAD1002000F076F90028FAD102E00F4812
:10186000FFF7C8FA0D480E4B19680122FFF78CFAF2
:101870000028F4D102E00B48FFF7BCFA0A4B1A68C3
:1018800042F2107300930748FF210123FFF7FAF992
:101890000028F0D103B05DF804FB00BFA8000020D1
:1018A00018010020E00000201C01002001207047EA
:1018B00008B50648FFF7B8F9054B186800F0FCF9C1
:1018C000044B186800F0F8F908BD00BFE0000020E4
:1018D000180100201C01002030B593B0244A136C7D
:1018E00043F080531364A2F5E432136843F4404399
:1018F0001360012301930293022407944FF48003A1
:101900000893082309934FF4A8730A930B940723B1
:101910000C9301A8FFF774FA0F250D950E9400247F
:101920000F944FF4A05310934FF4805311930DA8CC
:101930000521FFF7BFFC0F480F4B03604FF48043B6
:1019400003610E4A426044618360C4610462C56001
:10195000FE238361FFF778F808B1FFF7A9FF0120A4
:1019600000F0A2F9064B18600023037013B030BDDD
:1019700000380240E000002000540040801A0600B9
:101980001C01002010B592B0254A136C43F080531F
:101990001364A2F5E432136843F440431360012357
:1019A00001930293022407944FF4800308930823C1
:1019B00009934FF4A8730A930B9407230C9301A87F
:1019C000FFF71EFA0F230D930E9400240F944FF48B
:1019D000A05310934FF4805311930DA80521FFF7E6
:1019E00069FC1048104B03604FF4804303610F4AB9
:1019F000426044618360C4610462FF23C360F223D8
:101A00008361FFF721F808B1FFF752FF012000F0D2
:101A10004BF9074B18600023037012B010BD00BFD4
:101A200000380240A800002000580040801A06003C
:101A30001801002008B5FFF74FFFFFF7A3FFFFF7DE
:101A4000EFFE01E0FFF7FEFEFFF730FF0028F9D1BF
:101A5000FFF72EFF08BD00BF70B586B0044628B959
:101A6000194A136B43F00803136316E0012805D1EC
:101A7000154A136B43F0080313630EE0022805D1E7
:101A8000114A136B43F00803136306E0032804D1E3
:101A90000D4A136B43F0080313630C4B33F81450D7
:101AA000019501230293039302230493084E56F8F1
:101AB000240001A9FEF7EAFC56F82400294600227A
:101AC000FEF7B0FE06B070BD00380240F01E000800
:101AD0001000002030B587B00C46054620B9164AE4
:101AE000136B43F00103136364B9012301930023D3
:101AF0000293039302230493104B53F8250001A98A
:101B0000FEF7C4FC012C15D101230193002403949A
:101B1000022304930A4B0293084B53F8250001A9B2
:101B2000FEF7B4FC06200F212246FEF74BFC0620F0
:101B3000FEF78AFC07B030BD0038024020000020CC
:101B40000000111008B5034B53F820000121FEF7E7
:101B500057FE08BD200000202DE9F04186B0026844
:101B6000334B9A4226D1334C236B43F00203236359
:101B7000236B43F002032363402301931223029358
:101B80000123039302230493042605962A4D284635
:101B90000DEB0601FEF77AFC4FF4007301930596F6
:101BA00028460DEB0601FEF771FC236C43F400138D
:101BB000236439E01F4C236B43F002032363236B40
:101BC00043F0020323634FF48063019312230293D3
:101BD00001260396022504954FF00408CDF81480E1
:101BE000154F38460DEB0801FEF750FC4FF400632B
:101BF0000193CDF8148038460DEB0801FEF746FC42
:101C0000236C43F480032364222031460022FEF734
:101C1000D9FB2220FEF718FC212029460022FEF7DE
:101C2000D1FB2120FEF710FC06B0BDE8F08100BF1B
:101C300000540040003802400004024010B5036820
:101C40009BB1144B1A6A42F400121A621A6A22F407
:101C500000121A62104C20464021FEF783FD2046F8
:101C60004FF40071FEF77EFD10BD0A4B1A6A42F474
:101C700000121A621A6A22F400121A62064C2046F6
:101C80004FF48061FEF76EFD20464FF40061FEF7D1
:101C900069FD10BD0038024000040240014B186885
:101CA000704700BF84000020024B0146186800F016
:101CB0004FB800BF84000020024B0146186800F0B6
:101CC00003B800BF8400002030B500293DD051F892
:101CD000042C0B1F1D49002AB8BF9B180A680C462C
:101CE00012B95A600B6030BD93420DD21968581872
:101CF000904201BF5A5852181A6042685A602360D5
:101D000030BD994203D80A4651680029F9D11468B8
:101D100015199D420AD11B682344D01888421360CC
:101D200013D10868034413604B680DE002D90C23FB
:101D3000036030BD1C681819884204BF08684968F0
:101D4000596004BF00191860536030BDA000002026
:101D500070B5CC1C24F0030408340C2C38BF0C24C0
:101D6000002C064603DA0C233360002070BD8C4241
:101D7000F9D3204A136810461946A1B10A68121B0C
:101D80000ED40B2A03D90A608B188C501FE08B42AB
:101D90000DBF5A684A685A60026018BF0B4616E0C9
:101DA0000B464968E9E7144D2B681BB9304600F033
:101DB00025F828603046214600F020F8421C0346F2
:101DC000D1D0C51C25F0030585420AD11C6003F162
:101DD0000B001A1D20F00700821A0AD051429950B8
:101DE00070BD3046E91A00F009F80130BBD02B462F
:101DF000ECE770BDA00000209C00002038B5064C28
:101E00000023054608462360FFF77AFC431C02D1F5
:101E1000236803B12B6038BDA40000202E2E2F7341
:101E2000797374656D2F7372632F73746D333266BB
:101E3000342D68616C2F73746D3332663478785F3B
:101E400068616C5F636F727465782E6300000000D8
:101E50002E2E2F73797374656D2F7372632F7374C5
:101E60006D333266342D68616C2F73746D33326656
:101E70003478785F68616C5F6770696F2E6300000B
:101E80002E2E2F73797374656D2F7372632F737495
:101E90006D333266342D68616C2F73746D33326626
:101EA0003478785F68616C5F6932632E630000008C
:101EB00000000000010203040102030406070809F0
:101EC0002E2E2F73797374656D2F7372632F737455
:101ED0006D333266342D68616C2F73746D333266E6
:101EE0003478785F68616C5F7263632E6300000012
:0A1EF00000100020004000804300B5
:101EFC007856341298000020000000000024F400F2
:101F0C00000C0240000C0240000C0240000C02408D
:101F1C000000024000000000000000000000000073
:101F2C0000000000000000000000000000000000A5
:101F3C0000000000F81E0008000000000000000077
:101F4C000000000000000000000000000000000085
:101F5C000000000000000000000000000000000075
:101F6C000000000000000000000000000000000065
:0C1F7C0000000000240000203254769881
:040000050800018965
:00000001FF
